:100000000C9434000C9451000C9451000C94510049
:100010000C9451000C9451000C9451000C9451001C
:100020000C9451000C9451000C9451000C9451000C
:100030000C9451000C9451000C9451000C945100FC
:100040000C9451000C9451000C94AB000C94510092
:100050000C9451000C9451000C9451000C945100DC
:100060000C9451000C94510011241FBECFEFD8E026
:10007000DEBFCDBF11E0A0E0B1E0E8EEF8E002C0E5
:1000800005900D92AC31B107D9F721E0ACE1B1E0B8
:1000900001C01D92A736B207E1F70E9418010C9427
:1000A00072040C9400000E949C0080E090E008958F
:1000B0000E9495008D3009F48AE0082E000C990BFF
:1000C00008950E946E00E1E6F1E08EE091E09383F6
:1000D000828380E091E0918380830895CF92DF92C4
:1000E000EF92FF926B017C0140E46CE171E08CE5E2
:1000F00091E00E94D30060E472E48FE090E0A701F9
:1001000096010E943401215031093093C50020939B
:10011000C40088E98093C10086E08093C20078948F
:10012000FF90EF90DF90CF9008958091C00087FFFF
:10013000FCCF8091C60008959091C00095FFFCCF40
:100140008093C6000895F894BC018CE591E00E946C
:10015000DA00789408951F920F920FB60F9211242F
:100160002F933F934F935F936F937F938F939F93BF
:10017000AF93BF93EF93FF936091C6008CE591E03E
:100180000E94F900FF91EF91BF91AF919F918F91E4
:100190007F916F915F914F913F912F910F900FBE83
:1001A0000F901F901895FC01718360834483128225
:1001B00013820895CF93DF93FC01DB012FB7F894EE
:1001C00092818381981305C02FBF81E0DF91CF9189
:1001D000089581E0890F3481831708F080E0C081A1
:1001E000D181C90FD11D98819C9382832FBF80E05C
:1001F000EDCFFC012FB7F89483818F5F948189172D
:1002000008F080E03FB7F8949281981307C091E01E
:10021000980F4481941708F090E092833FBF938138
:10022000A081B181A90FB11D6C9383832FBF089565
:10023000CF93DF931F92CDB7DEB760E875E280E021
:1002400090E00E9461008E010F5F1F4F809161015D
:10025000909162010E94560189831F930F930E941F
:1002600094010F900F90F2CFA1E21A2EAA1BBB1B94
:10027000FD010DC0AA1FBB1FEE1FFF1FA217B30772
:10028000E407F50720F0A21BB30BE40BF50B661F88
:10029000771F881F991F1A9469F76095709580954C
:1002A00090959B01AC01BD01CF010895CF93DF93E1
:1002B000EC012B8120FF33C026FF0AC02F7B2B834C
:1002C0008E819F8101969F838E838A8190E029C0D1
:1002D00022FF0FC0E881F9818081082E000C990B64
:1002E000009719F420622B831AC03196F983E883B2
:1002F0000EC0EA85FB85099597FF09C02B81019601
:1003000011F080E201C080E1822B8B8308C02E8136
:100310003F812F5F3F4F3F832E83992702C08FEF8E
:100320009FEFDF91CF910895A0E0B0E0EAE9F1E01E
:100330000C944B04AE014B5F5F4FFA0161917191D8
:10034000AF0180916301909164010E94AA01E2E0F3
:100350000C946704ABE0B0E0E0EBF1E00C943B04FC
:100360006C017B018A01FC0117821682838181FF67
:10037000CCC1CE0101963C01F6019381F70193FDBA
:10038000859193FF81917F01882309F4BAC1853259
:1003900039F493FD859193FF81917F01853229F492
:1003A000B60190E00E94A103E7CF912C212C312CC3
:1003B000FFE1F315D8F08B3279F038F4803279F020
:1003C0008332A1F4232D20611DC08D3261F0803372
:1003D00069F4232D216016C0832D8260382EE32D11
:1003E000E4603E2E2AC0F32DF8601DC037FC2DC0FE
:1003F00020ED280F2A3040F08E32B9F436FC81C14E
:10040000232D2064322E19C036FE06C08AE0989E45
:10041000200D1124922E11C0EAE02E9E200D1124F1
:10042000222EF32DF0623F2E08C08C3621F4832D4E
:100430008068382E02C0883641F4F70193FD85911B
:1004400093FF81917F018111B3CF982F9F7D9554A8
:10045000933028F40C5F1F4F9FE399830DC08336C0
:1004600031F0833771F0833509F059C021C0F801AC
:10047000808189830E5F1F4F88248394912C5301C0
:1004800013C02801F2E04F0E511CF801A080B1808A
:1004900036FE03C0692D70E002C06FEF7FEFC5012B
:1004A0000E9496034C018201F32DFF773F2E16C068
:1004B000280122E0420E511CF801A080B18036FED6
:1004C00003C0692D70E002C06FEF7FEFC5010E948D
:1004D0008B034C01F32DF0683F2E820133FC1BC0CF
:1004E000822D90E088169906B0F4B60180E290E083
:1004F0000E94A1032A94F4CFF50137FC859137FEC1
:1005000081915F01B60190E00E94A10321102A941D
:1005100021E0821A91088114910471F7E8C08436B1
:1005200011F0893641F5F80137FE07C0608171810D
:10053000828193810C5F1F4F08C060817181072EFB
:10054000000C880B990B0E5F1F4FF32DFF763F2E8B
:1005500097FF09C090958095709561957F4F8F4F5B
:100560009F4FF0683F2E2AE030E0A3010E94DD0398
:10057000882E861845C0853731F4232D2F7EB22E64
:100580002AE030E025C0932D997FB92E8F36C1F037
:1005900018F4883579F0B5C0803719F0883721F024
:1005A000B0C0E92FE061BE2EB4FE0DC0FB2DF4609B
:1005B000BF2E09C034FE0AC0292F2660B22E06C005
:1005C00028E030E005C020E130E002C020E132E068
:1005D000F801B7FE07C060817181828193810C5F51
:1005E0001F4F06C06081718180E090E00E5F1F4F59
:1005F000A3010E94DD03882E8618FB2DFF773F2E76
:1006000036FE0DC0232D2E7FA22E891458F434FE01
:100610000BC032FC09C0832D8E7EA82E05C0B82CDD
:10062000A32C03C0B82C01C0B92CA4FE0FC0FE013E
:10063000E80DF11D8081803321F49A2D997EA92E39
:1006400009C0A2FE06C0B394B39404C08A2D867874
:1006500009F0B394A3FC11C0A0FE06C0B21488F444
:10066000280C922C9B180EC0B21460F4B60180E2E4
:1006700090E00E94A103B394F7CFB21418F42B18A2
:1006800002C0982C212CA4FE10C0B60180E390E09B
:100690000E94A103A2FE17C0A1FC03C088E790E05E
:1006A00002C088E590E0B6010CC08A2D867859F02A
:1006B000A1FE02C08BE201C080E2A7FC8DE2B60180
:1006C00090E00E94A103891438F4B60180E390E021
:1006D0000E94A1039A94F7CF8A94F301E80DF11DCB
:1006E0008081B60190E00E94A1038110F5CF222005
:1006F00009F442CEB60180E290E00E94A1032A9460
:10070000F6CFF6018681978102C08FEF9FEF2B967F
:10071000E2E10C945704FC01059061507040011017
:10072000D8F7809590958E0F9F1F0895FC0161501A
:10073000704001900110D8F7809590958E0F9F1F03
:1007400008950F931F93CF93DF93FB01238121FD26
:1007500003C08FEF9FEF2CC022FF16C04681578148
:10076000248135814217530744F4A081B1819D0152
:100770002F5F3F4F318320838C93268137812F5FFA
:100780003F4F3783268314C08B01EC01FB010084AB
:10079000F185E02D0995892BE1F6D80116968D910A
:1007A0009C911797019617969C938E931697CE015E
:1007B000DF91CF911F910F910895FA01AA27283058
:1007C00051F1203181F1E8946F936E7F6E5F7F4F1E
:1007D0008F4F9F4FAF4FB1E03ED0B4E03CD0670F9A
:1007E000781F891F9A1FA11D680F791F8A1F911DED
:1007F000A11D6A0F711D811D911DA11D20D009F43D
:1008000068943F912AE0269F11243019305D31937E
:10081000DEF6CF010895462F4770405D4193B3E067
:100820000FD0C9F7F6CF462F4F70405D4A3318F00E
:10083000495D31FD4052419302D0A9F7EACFB4E0BF
:10084000A6959795879577956795BA95C9F7009777
:100850006105710508959B01AC010A2E0694579518
:10086000479537952795BA95C9F7620F731F841F6F
:10087000951FA01D08952F923F924F925F926F9205
:100880007F928F929F92AF92BF92CF92DF92EF9220
:10089000FF920F931F93CF93DF93CDB7DEB7CA1BA1
:1008A000DB0B0FB6F894DEBF0FBECDBF09942A88CC
:1008B000398848885F846E847D848C849B84AA8474
:1008C000B984C884DF80EE80FD800C811B81AA8101
:1008D000B981CE0FD11D0FB6F894DEBF0FBECDBFCC
:0808E000ED010895F894FFCF2B
:1008E80000000001000000000000580000000000A7
:0C08F8000002000000005300000000009F
:00000001FF
